{
  "contractName": "Escrow",
  "abi": [
    {
      "inputs": [
        {
          "internalType": "address",
          "name": "_farmer",
          "type": "address"
        }
      ],
      "stateMutability": "nonpayable",
      "type": "constructor"
    },
    {
      "anonymous": false,
      "inputs": [
        {
          "indexed": true,
          "internalType": "address",
          "name": "buyer",
          "type": "address"
        },
        {
          "indexed": false,
          "internalType": "uint256",
          "name": "amount",
          "type": "uint256"
        }
      ],
      "name": "Deposited",
      "type": "event"
    },
    {
      "anonymous": false,
      "inputs": [
        {
          "indexed": false,
          "internalType": "uint256",
          "name": "milestoneIndex",
          "type": "uint256"
        },
        {
          "indexed": false,
          "internalType": "uint256",
          "name": "amount",
          "type": "uint256"
        }
      ],
      "name": "MilestoneAdded",
      "type": "event"
    },
    {
      "anonymous": false,
      "inputs": [
        {
          "indexed": false,
          "internalType": "uint256",
          "name": "milestoneIndex",
          "type": "uint256"
        },
        {
          "indexed": false,
          "internalType": "uint256",
          "name": "amount",
          "type": "uint256"
        }
      ],
      "name": "MilestoneReleased",
      "type": "event"
    },
    {
      "anonymous": false,
      "inputs": [
        {
          "indexed": true,
          "internalType": "address",
          "name": "farmer",
          "type": "address"
        },
        {
          "indexed": false,
          "internalType": "uint256",
          "name": "amount",
          "type": "uint256"
        }
      ],
      "name": "PaymentReleased",
      "type": "event"
    },
    {
      "inputs": [],
      "name": "contractBalance",
      "outputs": [
        {
          "internalType": "uint256",
          "name": "",
          "type": "uint256"
        }
      ],
      "stateMutability": "view",
      "type": "function",
      "constant": true
    },
    {
      "inputs": [],
      "name": "farmer",
      "outputs": [
        {
          "internalType": "address",
          "name": "",
          "type": "address"
        }
      ],
      "stateMutability": "view",
      "type": "function",
      "constant": true
    },
    {
      "inputs": [
        {
          "internalType": "uint256",
          "name": "",
          "type": "uint256"
        }
      ],
      "name": "milestones",
      "outputs": [
        {
          "internalType": "uint256",
          "name": "amount",
          "type": "uint256"
        },
        {
          "internalType": "bool",
          "name": "released",
          "type": "bool"
        }
      ],
      "stateMutability": "view",
      "type": "function",
      "constant": true
    },
    {
      "inputs": [],
      "name": "owner",
      "outputs": [
        {
          "internalType": "address",
          "name": "",
          "type": "address"
        }
      ],
      "stateMutability": "view",
      "type": "function",
      "constant": true
    },
    {
      "inputs": [],
      "name": "deposit",
      "outputs": [],
      "stateMutability": "payable",
      "type": "function",
      "payable": true
    },
    {
      "inputs": [
        {
          "internalType": "uint256",
          "name": "_amount",
          "type": "uint256"
        }
      ],
      "name": "addMilestone",
      "outputs": [],
      "stateMutability": "nonpayable",
      "type": "function"
    },
    {
      "inputs": [
        {
          "internalType": "uint256",
          "name": "milestoneIndex",
          "type": "uint256"
        }
      ],
      "name": "releasePayment",
      "outputs": [],
      "stateMutability": "nonpayable",
      "type": "function"
    },
    {
      "inputs": [],
      "name": "getContractBalance",
      "outputs": [
        {
          "internalType": "uint256",
          "name": "",
          "type": "uint256"
        }
      ],
      "stateMutability": "view",
      "type": "function",
      "constant": true
    },
    {
      "inputs": [],
      "name": "getMilestoneCount",
      "outputs": [
        {
          "internalType": "uint256",
          "name": "",
          "type": "uint256"
        }
      ],
      "stateMutability": "view",
      "type": "function",
      "constant": true
    },
    {
      "inputs": [
        {
          "internalType": "uint256",
          "name": "milestoneIndex",
          "type": "uint256"
        }
      ],
      "name": "getMilestone",
      "outputs": [
        {
          "internalType": "uint256",
          "name": "amount",
          "type": "uint256"
        },
        {
          "internalType": "bool",
          "name": "released",
          "type": "bool"
        }
      ],
      "stateMutability": "view",
      "type": "function",
      "constant": true
    }
  ],
  "bytecode": "0x608060405234801561001057600080fd5b50604051611114380380611114833981810160405281019061003291906100ce565b336000806101000a81548173ffffffffffffffffffffffffffffffffffffffff021916908373ffffffffffffffffffffffffffffffffffffffff16021790555080600160006101000a81548173ffffffffffffffffffffffffffffffffffffffff021916908373ffffffffffffffffffffffffffffffffffffffff16021790555050610140565b6000815190506100c881610129565b92915050565b6000602082840312156100e057600080fd5b60006100ee848285016100b9565b91505092915050565b600061010282610109565b9050919050565b600073ffffffffffffffffffffffffffffffffffffffff82169050919050565b610132816100f7565b811461013d57600080fd5b50565b610fc58061014f6000396000f3fe6080604052600436106100915760003560e01c80638f4cf247116100595780638f4cf2471461017e578063d0e30db0146101a9578063d811fcf0146101b3578063e89e4ed6146101de578063e9811abd1461021c57610091565b80632442e1cb146100965780636f9fb98a146100d457806388685cd9146100ff5780638b7afe2e146101285780638da5cb5b14610153575b600080fd5b3480156100a257600080fd5b506100bd60048036038101906100b89190610a16565b610245565b6040516100cb929190610e14565b60405180910390f35b3480156100e057600080fd5b506100e96102fc565b6040516100f69190610df9565b60405180910390f35b34801561010b57600080fd5b5061012660048036038101906101219190610a16565b610304565b005b34801561013457600080fd5b5061013d6106e5565b60405161014a9190610df9565b60405180910390f35b34801561015f57600080fd5b506101686106eb565b6040516101759190610cde565b60405180910390f35b34801561018a57600080fd5b5061019361070f565b6040516101a09190610df9565b60405180910390f35b6101b161071c565b005b3480156101bf57600080fd5b506101c86107c8565b6040516101d59190610cde565b60405180910390f35b3480156101ea57600080fd5b5061020560048036038101906102009190610a16565b6107ee565b604051610213929190610e14565b60405180910390f35b34801561022857600080fd5b50610243600480360381019061023e9190610a16565b61082f565b005b600080600380549050831061028f576040517f08c379a000000000000000000000000000000000000000000000000000000000815260040161028690610d79565b60405180910390fd5b6000600384815481106102cb577f4e487b7100000000000000000000000000000000000000000000000000000000600052603260045260246000fd5b9060005260206000209060020201905080600001548160010160009054906101000a900460ff169250925050915091565b600047905090565b60008054906101000a900473ffffffffffffffffffffffffffffffffffffffff1673ffffffffffffffffffffffffffffffffffffffff163373ffffffffffffffffffffffffffffffffffffffff1614610392576040517f08c379a000000000000000000000000000000000000000000000000000000000815260040161038990610cf9565b60405180910390fd5b60038054905081106103d9576040517f08c379a00000000000000000000000000000000000000000000000000000000081526004016103d090610d79565b60405180910390fd5b60038181548110610413577f4e487b7100000000000000000000000000000000000000000000000000000000600052603260045260246000fd5b906000526020600020906002020160010160009054906101000a900460ff1615610472576040517f08c379a000000000000000000000000000000000000000000000000000000000815260040161046990610d59565b60405180910390fd5b600381815481106104ac577f4e487b7100000000000000000000000000000000000000000000000000000000600052603260045260246000fd5b9060005260206000209060020201600001546002541015610502576040517f08c379a00000000000000000000000000000000000000000000000000000000081526004016104f990610db9565b60405180910390fd5b60006003828154811061053e577f4e487b7100000000000000000000000000000000000000000000000000000000600052603260045260246000fd5b906000526020600020906002020160000154905060016003838154811061058e577f4e487b7100000000000000000000000000000000000000000000000000000000600052603260045260246000fd5b906000526020600020906002020160010160006101000a81548160ff02191690831515021790555080600260008282546105c89190610ecd565b92505081905550600160009054906101000a900473ffffffffffffffffffffffffffffffffffffffff1673ffffffffffffffffffffffffffffffffffffffff166108fc829081150290604051600060405180830381858888f19350505050158015610637573d6000803e3d6000fd5b507f9e069181c12760c2cd0078ed4facdbe1f3614543b0fbff5dbcac3cbc61a0b64e8282604051610669929190610e3d565b60405180910390a1600160009054906101000a900473ffffffffffffffffffffffffffffffffffffffff1673ffffffffffffffffffffffffffffffffffffffff167fdf20fd1e76bc69d672e4814fafb2c449bba3a5369d8359adf9e05e6fde87b056826040516106d99190610df9565b60405180910390a25050565b60025481565b60008054906101000a900473ffffffffffffffffffffffffffffffffffffffff1681565b6000600380549050905090565b6000341161075f576040517f08c379a000000000000000000000000000000000000000000000000000000000815260040161075690610dd9565b60405180910390fd5b34600260008282546107719190610e77565b925050819055503373ffffffffffffffffffffffffffffffffffffffff167f2da466a7b24304f47e87fa2e1e5a81b9831ce54fec19055ce277ca2f39ba42c4346040516107be9190610df9565b60405180910390a2565b600160009054906101000a900473ffffffffffffffffffffffffffffffffffffffff1681565b600381815481106107fe57600080fd5b90600052602060002090600202016000915090508060000154908060010160009054906101000a900460ff16905082565b60008054906101000a900473ffffffffffffffffffffffffffffffffffffffff1673ffffffffffffffffffffffffffffffffffffffff163373ffffffffffffffffffffffffffffffffffffffff16146108bd576040517f08c379a00000000000000000000000000000000000000000000000000000000081526004016108b490610d99565b60405180910390fd5b60008111610900576040517f08c379a00000000000000000000000000000000000000000000000000000000081526004016108f790610d39565b60405180910390fd5b806002541015610945576040517f08c379a000000000000000000000000000000000000000000000000000000000815260040161093c90610d19565b60405180910390fd5b600360405180604001604052808381526020016000151581525090806001815401808255809150506001900390600052602060002090600202016000909190919091506000820151816000015560208201518160010160006101000a81548160ff02191690831515021790555050507feb0a448faf1db18876f6c843c35c660823db4038188aedad797bd3ef46ada37160016003805490506109e79190610ecd565b826040516109f6929190610e3d565b60405180910390a150565b600081359050610a1081610f78565b92915050565b600060208284031215610a2857600080fd5b6000610a3684828501610a01565b91505092915050565b610a4881610f01565b82525050565b610a5781610f13565b82525050565b6000610a6a601e83610e66565b91507f4f6e6c79206f776e65722063616e2072656c65617365207061796d656e7400006000830152602082019050919050565b6000610aaa602c83610e66565b91507f436f6e74726163742062616c616e636520646f6573206e6f7420636f7665722060008301527f66756c6c206465706f73697400000000000000000000000000000000000000006020830152604082019050919050565b6000610b10602083610e66565b91507f416d6f756e74206d7573742062652067726561746572207468616e207a65726f6000830152602082019050919050565b6000610b50601a83610e66565b91507f4d696c6573746f6e6520616c72656164792072656c65617365640000000000006000830152602082019050919050565b6000610b90601783610e66565b91507f496e76616c6964206d696c6573746f6e6520696e6465780000000000000000006000830152602082019050919050565b6000610bd0601d83610e66565b91507f4f6e6c79206f776e65722063616e20616464206d696c6573746f6e65730000006000830152602082019050919050565b6000610c10602783610e66565b91507f436f6e74726163742062616c616e636520646f6573206e6f7420636f7665722060008301527f7061796d656e74000000000000000000000000000000000000000000000000006020830152604082019050919050565b6000610c76602183610e66565b91507f4465706f736974206d7573742062652067726561746572207468616e207a657260008301527f6f000000000000000000000000000000000000000000000000000000000000006020830152604082019050919050565b610cd881610f3f565b82525050565b6000602082019050610cf36000830184610a3f565b92915050565b60006020820190508181036000830152610d1281610a5d565b9050919050565b60006020820190508181036000830152610d3281610a9d565b9050919050565b60006020820190508181036000830152610d5281610b03565b9050919050565b60006020820190508181036000830152610d7281610b43565b9050919050565b60006020820190508181036000830152610d9281610b83565b9050919050565b60006020820190508181036000830152610db281610bc3565b9050919050565b60006020820190508181036000830152610dd281610c03565b9050919050565b60006020820190508181036000830152610df281610c69565b9050919050565b6000602082019050610e0e6000830184610ccf565b92915050565b6000604082019050610e296000830185610ccf565b610e366020830184610a4e565b9392505050565b6000604082019050610e526000830185610ccf565b610e5f6020830184610ccf565b9392505050565b600082825260208201905092915050565b6000610e8282610f3f565b9150610e8d83610f3f565b9250827fffffffffffffffffffffffffffffffffffffffffffffffffffffffffffffffff03821115610ec257610ec1610f49565b5b828201905092915050565b6000610ed882610f3f565b9150610ee383610f3f565b925082821015610ef657610ef5610f49565b5b828203905092915050565b6000610f0c82610f1f565b9050919050565b60008115159050919050565b600073ffffffffffffffffffffffffffffffffffffffff82169050919050565b6000819050919050565b7f4e487b7100000000000000000000000000000000000000000000000000000000600052601160045260246000fd5b610f8181610f3f565b8114610f8c57600080fd5b5056fea2646970667358221220de2fea888b4efe9816569d6a5f1f8a12d5e986e979d1d42548dc69381ce9149064736f6c63430008000033",
  "immutableReferences": {},
  "source": "// SPDX-License-Identifier: MIT\r\npragma solidity ^0.8.0;\r\n\r\ncontract Escrow {\r\n    address public owner; // Deployer of the contract (the buyer)\r\n    address public farmer; // Farmer's address to receive payments\r\n    uint256 public contractBalance; // Track contract balance\r\n\r\n    struct Milestone {\r\n        uint256 amount; // Amount for the milestone\r\n        bool released;  // Whether the payment for this milestone has been released\r\n    }\r\n\r\n    Milestone[] public milestones; // Array of milestones\r\n\r\n    event Deposited(address indexed buyer, uint256 amount);\r\n    event MilestoneAdded(uint256 milestoneIndex, uint256 amount);\r\n    event PaymentReleased(address indexed farmer, uint256 amount);\r\n    event MilestoneReleased(uint256 milestoneIndex, uint256 amount);\r\n\r\n    constructor(address _farmer) {\r\n        owner = msg.sender; // Set deployer as owner\r\n        farmer = _farmer; // Set farmer's address\r\n    }\r\n\r\n    // Function to deposit ETH to the contract\r\n    function deposit() public payable {\r\n        require(msg.value > 0, \"Deposit must be greater than zero\");\r\n        contractBalance += msg.value; // Track balance\r\n        emit Deposited(msg.sender, msg.value);\r\n    }\r\n\r\n    // Function to add a milestone with the specified amount to be released\r\n    function addMilestone(uint256 _amount) public {\r\n        require(msg.sender == owner, \"Only owner can add milestones\");\r\n        require(_amount > 0, \"Amount must be greater than zero\");\r\n        require(contractBalance >= _amount, \"Contract balance does not cover full deposit\");\r\n\r\n        milestones.push(Milestone({\r\n            amount: _amount,\r\n            released: false\r\n        }));\r\n\r\n        emit MilestoneAdded(milestones.length - 1, _amount);\r\n    }\r\n\r\n    // Function to release payment for a specific milestone\r\n    function releasePayment(uint256 milestoneIndex) public {\r\n        require(msg.sender == owner, \"Only owner can release payment\");\r\n        require(milestoneIndex < milestones.length, \"Invalid milestone index\");\r\n        require(!milestones[milestoneIndex].released, \"Milestone already released\");\r\n        require(contractBalance >= milestones[milestoneIndex].amount, \"Contract balance does not cover payment\");\r\n\r\n        uint256 amountToRelease = milestones[milestoneIndex].amount;\r\n        milestones[milestoneIndex].released = true;\r\n        contractBalance -= amountToRelease; // Update contract balance\r\n\r\n        payable(farmer).transfer(amountToRelease);\r\n        emit MilestoneReleased(milestoneIndex, amountToRelease);\r\n        emit PaymentReleased(farmer, amountToRelease);\r\n    }\r\n\r\n    // Function to get the contract balance\r\n    function getContractBalance() public view returns (uint256) {\r\n        return address(this).balance;\r\n    }\r\n\r\n    // Function to get the total number of milestones\r\n    function getMilestoneCount() public view returns (uint256) {\r\n        return milestones.length;\r\n    }\r\n\r\n    // Function to get details of a specific milestone\r\n    function getMilestone(uint256 milestoneIndex) public view returns (uint256 amount, bool released) {\r\n        require(milestoneIndex < milestones.length, \"Invalid milestone index\");\r\n        Milestone storage milestone = milestones[milestoneIndex];\r\n        return (milestone.amount, milestone.released);\r\n    }\r\n}\r\n\r\n",
  "sourcePath": "C:\\Users\\HP\\HybridPaymentSystem\\contracts\\HybridEscrow.sol",
  "compiler": {
    "name": "solc",
    "version": "0.8.0+commit.c7dfd78e.Emscripten.clang"
  },
  "schemaVersion": "3.4.16",
  "updatedAt": "2024-12-04T07:23:06.531Z",
  "networkType": "ethereum",
  "devdoc": {
    "kind": "dev",
    "methods": {},
    "version": 1
  },
  "userdoc": {
    "kind": "user",
    "methods": {},
    "version": 1
  }
}